{
  "address": "0xa330D54ceE2B3e3EEAf690465e96AeE828483f9a",
  "abi": [
    {
      "inputs": [],
      "stateMutability": "nonpayable",
      "type": "constructor"
    },
    {
      "inputs": [],
      "name": "Post__AlreadyLiked",
      "type": "error"
    },
    {
      "inputs": [],
      "name": "Post__RewardTransferFailed",
      "type": "error"
    },
    {
      "anonymous": false,
      "inputs": [
        {
          "indexed": true,
          "internalType": "uint256",
          "name": "postId",
          "type": "uint256"
        },
        {
          "indexed": true,
          "internalType": "address",
          "name": "author",
          "type": "address"
        }
      ],
      "name": "Post__Created",
      "type": "event"
    },
    {
      "inputs": [
        {
          "internalType": "string",
          "name": "_postTitle",
          "type": "string"
        },
        {
          "internalType": "string",
          "name": "_content",
          "type": "string"
        }
      ],
      "name": "createPost",
      "outputs": [],
      "stateMutability": "nonpayable",
      "type": "function"
    },
    {
      "inputs": [
        {
          "internalType": "uint256",
          "name": "_postId",
          "type": "uint256"
        }
      ],
      "name": "getPostDetails",
      "outputs": [
        {
          "internalType": "address",
          "name": "",
          "type": "address"
        },
        {
          "internalType": "string",
          "name": "",
          "type": "string"
        },
        {
          "internalType": "string",
          "name": "",
          "type": "string"
        },
        {
          "internalType": "uint256",
          "name": "",
          "type": "uint256"
        },
        {
          "internalType": "uint256",
          "name": "",
          "type": "uint256"
        },
        {
          "internalType": "uint256",
          "name": "",
          "type": "uint256"
        }
      ],
      "stateMutability": "view",
      "type": "function"
    },
    {
      "inputs": [],
      "name": "getTotalPostCount",
      "outputs": [
        {
          "internalType": "uint256",
          "name": "",
          "type": "uint256"
        }
      ],
      "stateMutability": "view",
      "type": "function"
    },
    {
      "inputs": [
        {
          "internalType": "uint256",
          "name": "_postId",
          "type": "uint256"
        }
      ],
      "name": "likePost",
      "outputs": [],
      "stateMutability": "nonpayable",
      "type": "function"
    },
    {
      "inputs": [
        {
          "internalType": "uint256",
          "name": "_postId",
          "type": "uint256"
        }
      ],
      "name": "rewardPost",
      "outputs": [],
      "stateMutability": "payable",
      "type": "function"
    }
  ],
  "transactionHash": "0x1c97657948134ae4d5314f16bd95ed191d98a12f6f52f130b9d2aa8036e3ecd4",
  "args": [],
  "numDeployments": 1,
  "solcInputHash": "607d47e95751a2536a9f19fa54159228",
  "bytecode": "0x608060405234801561001057600080fd5b5060008081905550610f22806100276000396000f3fe60806040526004361061004a5760003560e01c8063392338f51461004f578063725009d3146100785780639fc226f4146100a1578063c471b737146100e3578063efbe8469146100ff575b600080fd5b34801561005b57600080fd5b50610076600480360381019061007191906108e9565b61012a565b005b34801561008457600080fd5b5061009f600480360381019061009a9190610997565b6102d3565b005b3480156100ad57600080fd5b506100c860048036038101906100c39190610997565b610451565b6040516100da96959493929190610a93565b60405180910390f35b6100fd60048036038101906100f89190610997565b6105e4565b005b34801561010b57600080fd5b506101146106df565b6040516101219190610b02565b60405180910390f35b6040518060c001604052803373ffffffffffffffffffffffffffffffffffffffff16815260200183815260200182815260200142815260200160008152602001600067ffffffffffffffff811115610185576101846107be565b5b6040519080825280602002602001820160405280156101b35781602001602082028036833780820191505090505b50815250600160008054815260200190815260200160002060008201518160000160006101000a81548173ffffffffffffffffffffffffffffffffffffffff021916908373ffffffffffffffffffffffffffffffffffffffff16021790555060208201518160010190816102279190610d29565b50604082015181600201908161023d9190610d29565b50606082015181600301556080820151816004015560a082015181600501908051906020019061026e9291906106e8565b509050503373ffffffffffffffffffffffffffffffffffffffff166000547f1c2eef44ba6494c1419c87f822cd836920d9ba4082375c43995aedddd6c875a360405160405180910390a36000808154809291906102ca90610e2a565b91905055505050565b6000600160008381526020019081526020016000209050600260003373ffffffffffffffffffffffffffffffffffffffff1673ffffffffffffffffffffffffffffffffffffffff168152602001908152602001600020600083815260200190815260200160002060009054906101000a900460ff161561037f576040517fa641218a00000000000000000000000000000000000000000000000000000000815260040160405180910390fd5b80600501339080600181540180825580915050600190039060005260206000200160009091909190916101000a81548173ffffffffffffffffffffffffffffffffffffffff021916908373ffffffffffffffffffffffffffffffffffffffff1602179055506001600260003373ffffffffffffffffffffffffffffffffffffffff1673ffffffffffffffffffffffffffffffffffffffff168152602001908152602001600020600084815260200190815260200160002060006101000a81548160ff0219169083151502179055505050565b60006060806000806000806001600089815260200190815260200160002090506000816005018054905090508160000160009054906101000a900473ffffffffffffffffffffffffffffffffffffffff16826001018360020184600301548560040154858480546104c190610b4c565b80601f01602080910402602001604051908101604052809291908181526020018280546104ed90610b4c565b801561053a5780601f1061050f5761010080835404028352916020019161053a565b820191906000526020600020905b81548152906001019060200180831161051d57829003601f168201915b5050505050945083805461054d90610b4c565b80601f016020809104026020016040519081016040528092919081815260200182805461057990610b4c565b80156105c65780601f1061059b576101008083540402835291602001916105c6565b820191906000526020600020905b8154815290600101906020018083116105a957829003601f168201915b50505050509350975097509750975097509750505091939550919395565b600060016000838152602001908152602001600020905060008160000160009054906101000a900473ffffffffffffffffffffffffffffffffffffffff1673ffffffffffffffffffffffffffffffffffffffff163460405161064590610ea3565b60006040518083038185875af1925050503d8060008114610682576040519150601f19603f3d011682016040523d82523d6000602084013e610687565b606091505b50509050806106c2576040517fc7ab252700000000000000000000000000000000000000000000000000000000815260040160405180910390fd5b3482600401546106d29190610eb8565b8260040181905550505050565b60008054905090565b828054828255906000526020600020908101928215610761579160200282015b828111156107605782518260006101000a81548173ffffffffffffffffffffffffffffffffffffffff021916908373ffffffffffffffffffffffffffffffffffffffff16021790555091602001919060010190610708565b5b50905061076e9190610772565b5090565b5b8082111561078b576000816000905550600101610773565b5090565b6000604051905090565b600080fd5b600080fd5b600080fd5b600080fd5b6000601f19601f8301169050919050565b7f4e487b7100000000000000000000000000000000000000000000000000000000600052604160045260246000fd5b6107f6826107ad565b810181811067ffffffffffffffff82111715610815576108146107be565b5b80604052505050565b600061082861078f565b905061083482826107ed565b919050565b600067ffffffffffffffff821115610854576108536107be565b5b61085d826107ad565b9050602081019050919050565b82818337600083830152505050565b600061088c61088784610839565b61081e565b9050828152602081018484840111156108a8576108a76107a8565b5b6108b384828561086a565b509392505050565b600082601f8301126108d0576108cf6107a3565b5b81356108e0848260208601610879565b91505092915050565b60008060408385031215610900576108ff610799565b5b600083013567ffffffffffffffff81111561091e5761091d61079e565b5b61092a858286016108bb565b925050602083013567ffffffffffffffff81111561094b5761094a61079e565b5b610957858286016108bb565b9150509250929050565b6000819050919050565b61097481610961565b811461097f57600080fd5b50565b6000813590506109918161096b565b92915050565b6000602082840312156109ad576109ac610799565b5b60006109bb84828501610982565b91505092915050565b600073ffffffffffffffffffffffffffffffffffffffff82169050919050565b60006109ef826109c4565b9050919050565b6109ff816109e4565b82525050565b600081519050919050565b600082825260208201905092915050565b60005b83811015610a3f578082015181840152602081019050610a24565b60008484015250505050565b6000610a5682610a05565b610a608185610a10565b9350610a70818560208601610a21565b610a79816107ad565b840191505092915050565b610a8d81610961565b82525050565b600060c082019050610aa860008301896109f6565b8181036020830152610aba8188610a4b565b90508181036040830152610ace8187610a4b565b9050610add6060830186610a84565b610aea6080830185610a84565b610af760a0830184610a84565b979650505050505050565b6000602082019050610b176000830184610a84565b92915050565b7f4e487b7100000000000000000000000000000000000000000000000000000000600052602260045260246000fd5b60006002820490506001821680610b6457607f821691505b602082108103610b7757610b76610b1d565b5b50919050565b60008190508160005260206000209050919050565b60006020601f8301049050919050565b600082821b905092915050565b600060088302610bdf7fffffffffffffffffffffffffffffffffffffffffffffffffffffffffffffffff82610ba2565b610be98683610ba2565b95508019841693508086168417925050509392505050565b6000819050919050565b6000610c26610c21610c1c84610961565b610c01565b610961565b9050919050565b6000819050919050565b610c4083610c0b565b610c54610c4c82610c2d565b848454610baf565b825550505050565b600090565b610c69610c5c565b610c74818484610c37565b505050565b5b81811015610c9857610c8d600082610c61565b600181019050610c7a565b5050565b601f821115610cdd57610cae81610b7d565b610cb784610b92565b81016020851015610cc6578190505b610cda610cd285610b92565b830182610c79565b50505b505050565b600082821c905092915050565b6000610d0060001984600802610ce2565b1980831691505092915050565b6000610d198383610cef565b9150826002028217905092915050565b610d3282610a05565b67ffffffffffffffff811115610d4b57610d4a6107be565b5b610d558254610b4c565b610d60828285610c9c565b600060209050601f831160018114610d935760008415610d81578287015190505b610d8b8582610d0d565b865550610df3565b601f198416610da186610b7d565b60005b82811015610dc957848901518255600182019150602085019450602081019050610da4565b86831015610de65784890151610de2601f891682610cef565b8355505b6001600288020188555050505b505050505050565b7f4e487b7100000000000000000000000000000000000000000000000000000000600052601160045260246000fd5b6000610e3582610961565b91507fffffffffffffffffffffffffffffffffffffffffffffffffffffffffffffffff8203610e6757610e66610dfb565b5b600182019050919050565b600081905092915050565b50565b6000610e8d600083610e72565b9150610e9882610e7d565b600082019050919050565b6000610eae82610e80565b9150819050919050565b6000610ec382610961565b9150610ece83610961565b9250828201905080821115610ee657610ee5610dfb565b5b9291505056fea2646970667358221220c237d32d82b4a9a6fa0f1f64b2689c2d488bdbfc0413080a24ace3728f5c8f9064736f6c63430008110033",
  "devdoc": {
    "kind": "dev",
    "methods": {},
    "version": 1
  },
  "userdoc": {
    "kind": "user",
    "methods": {},
    "version": 1
  },
  "storageLayout": {
    "storage": [
      {
        "astId": 21,
        "contract": "contracts/PostFactory.sol:PostFactory",
        "label": "postCount",
        "offset": 0,
        "slot": "0",
        "type": "t_uint256"
      },
      {
        "astId": 26,
        "contract": "contracts/PostFactory.sol:PostFactory",
        "label": "postMapping",
        "offset": 0,
        "slot": "1",
        "type": "t_mapping(t_uint256,t_struct(Post)19_storage)"
      },
      {
        "astId": 32,
        "contract": "contracts/PostFactory.sol:PostFactory",
        "label": "likedPosts",
        "offset": 0,
        "slot": "2",
        "type": "t_mapping(t_address,t_mapping(t_uint256,t_bool))"
      }
    ],
    "types": {
      "t_address": {
        "encoding": "inplace",
        "label": "address",
        "numberOfBytes": "20"
      },
      "t_array(t_address)dyn_storage": {
        "base": "t_address",
        "encoding": "dynamic_array",
        "label": "address[]",
        "numberOfBytes": "32"
      },
      "t_bool": {
        "encoding": "inplace",
        "label": "bool",
        "numberOfBytes": "1"
      },
      "t_mapping(t_address,t_mapping(t_uint256,t_bool))": {
        "encoding": "mapping",
        "key": "t_address",
        "label": "mapping(address => mapping(uint256 => bool))",
        "numberOfBytes": "32",
        "value": "t_mapping(t_uint256,t_bool)"
      },
      "t_mapping(t_uint256,t_bool)": {
        "encoding": "mapping",
        "key": "t_uint256",
        "label": "mapping(uint256 => bool)",
        "numberOfBytes": "32",
        "value": "t_bool"
      },
      "t_mapping(t_uint256,t_struct(Post)19_storage)": {
        "encoding": "mapping",
        "key": "t_uint256",
        "label": "mapping(uint256 => struct PostFactory.Post)",
        "numberOfBytes": "32",
        "value": "t_struct(Post)19_storage"
      },
      "t_string_storage": {
        "encoding": "bytes",
        "label": "string",
        "numberOfBytes": "32"
      },
      "t_struct(Post)19_storage": {
        "encoding": "inplace",
        "label": "struct PostFactory.Post",
        "members": [
          {
            "astId": 7,
            "contract": "contracts/PostFactory.sol:PostFactory",
            "label": "author",
            "offset": 0,
            "slot": "0",
            "type": "t_address"
          },
          {
            "astId": 9,
            "contract": "contracts/PostFactory.sol:PostFactory",
            "label": "postTitle",
            "offset": 0,
            "slot": "1",
            "type": "t_string_storage"
          },
          {
            "astId": 11,
            "contract": "contracts/PostFactory.sol:PostFactory",
            "label": "content",
            "offset": 0,
            "slot": "2",
            "type": "t_string_storage"
          },
          {
            "astId": 13,
            "contract": "contracts/PostFactory.sol:PostFactory",
            "label": "createdOn",
            "offset": 0,
            "slot": "3",
            "type": "t_uint256"
          },
          {
            "astId": 15,
            "contract": "contracts/PostFactory.sol:PostFactory",
            "label": "rewardEarned",
            "offset": 0,
            "slot": "4",
            "type": "t_uint256"
          },
          {
            "astId": 18,
            "contract": "contracts/PostFactory.sol:PostFactory",
            "label": "likers",
            "offset": 0,
            "slot": "5",
            "type": "t_array(t_address)dyn_storage"
          }
        ],
        "numberOfBytes": "192"
      },
      "t_uint256": {
        "encoding": "inplace",
        "label": "uint256",
        "numberOfBytes": "32"
      }
    }
  }
}